:020000040800F2
:1000000000000220992400088123000889230008A9
:100010009123000899230008A12300080000000094
:10002000000000000000000000000000A9230008FC
:10003000B723000800000000C5230008D3230008F0
:10004000E9240008E9240008E9240008E92400085C
:10005000E9240008E9240008E9240008E92400084C
:10006000E9240008E9240008E9240008E92400083C
:10007000E9240008E9240008E9240008E92400082C
:10008000E9240008E9240008E9240008E92400081C
:10009000E9240008E9240008E9240008E92400080C
:1000A000E9240008E9240008E9240008E9240008FC
:1000B000E9240008E1230008E9240008E9240008F5
:1000C000E9240008E9240008E9240008E9240008DC
:1000D000E9240008F5230008E9240008E9240008C1
:1000E000E9240008E9240008E9240008E9240008BC
:1000F000E9240008E9240008E9240008E9240008AC
:10010000E9240008E9240008E9240008E92400089B
:10011000E9240008E9240008E9240008E92400088B
:10012000E9240008E9240008E9240008E92400087B
:10013000E9240008E9240008E9240008E92400086B
:10014000E9240008E9240008E9240008E92400085B
:10015000E9240008E9240008E9240008E92400084B
:10016000E9240008E9240008E9240008E92400083B
:10017000E9240008E9240008E92400080000000040
:08018000E9240008E92400084D
:1001900010B5054C237833B9044B13B10448AFF3C1
:1001A00000800123237010BD8000002000000000AB
:1001B000D4BD000808B5034B1BB103490348AFF396
:1001C000008008BD0000000084000020D4BD0008AD
:1001D00010F8012B11F8013B012A28BF9A42F7D0F1
:1001E000D01A70470000000000000000000000006E
:1001F00001F0FF01102A2BDB10F0070F08D010F8D8
:10020000013B013A8B422DD010F0070F42B3F6D1DB
:10021000F0B441EA012141EA014122F007047FF0F4
:1002200000070023F0E80256083C85EA010586EA4B
:10023000010685FA47F5A3FA87F586FA47F6A5FA87
:1002400087F68EB9EED1F0BC01F0FF0102F0070293
:1002500032B110F8013B013A83EA010313B1F8D13E
:100260000020704701387047002D06BF354603381F
:10027000073815F0010F07D1013015F4807F02BF58
:10028000013015F4C03F0130F0BC0138704700BFA9
:1002900053B94AB9002908BF00281CBF4FF0FF31ED
:1002A0004FF0FF3000F088B9ADF1080C6DE904CED5
:1002B00000F006F8DDF804E0DDE9022304B0704741
:1002C0002DE9F047089D8E4604468846002B4AD10A
:1002D0008A42174662D9B2FA82F64EB1C6F12003BD
:1002E00001FA06F820FA03F3B74043EA0808B440DD
:1002F0004FEA174E1FFA87FCB8FBFEF1230C0EFBEA
:10030000118843EA084301FB0CF29A4209D9FB1811
:1003100001F1FF3080F0EA809A4240F2E780023932
:100320003B449A1AA3B2B2FBFEF00EFB102243EA42
:10033000024300FB0CFC9C4509D9FB1800F1FF327D
:1003400080F0D6809C4540F2D3803B44023840EA9E
:100350000140A3EB0C0300211DB1F3400022C5E9CD
:100360000032BDE8F0878B4205D90DB1C5E9000127
:1003700000210846F5E7B3FA83F1002946D1734519
:1003800002D3824200F20581841A6EEB030201203F
:100390009046002DE5D0C5E90048E2E7002A00F0CC
:1003A0009080B2FA82F6002E40F0A4808A1A030CE4
:1003B0004FEA174E80B2BCB20121B2FBFEFC0EFB2D
:1003C0001C2243EA024304FB0CF29A4207D9FB18B1
:1003D0000CF1FF3802D29A4200F2E080C4469B1A28
:1003E000B3FBFEF20EFB123340EA034302FB04F4BC
:1003F0009C4207D9FB1802F1FF3002D29C4200F266
:10040000CA8002461B1B42EA0C40A5E7C1F1200648
:100410008B4022FA06F71F430EFA01F420FA06F386
:100420002EFA06FE4FEA1749234300FA01F81FFA95
:1004300087FCBEFBF9F01C0C09FB10EE44EA0E44ED
:1004400000FB0CFEA64502FA01F209D93C1900F1A5
:10045000FF3A80F09C80A64540F2998002383C44E7
:10046000A4EB0E041FFA83FEB4FBF9F309FB13445B
:100470004EEA044403FB0CFCA44508D93C1903F1E3
:10048000FF3E80F08280A4457FD9023B3C4443EA92
:100490000040A4EB0C04A0FB02EC64457346E1466B
:1004A00062D35FD05DB1B8EB030264EB090404FAD8
:1004B00006F622FA01F31E43CC40C5E90064002190
:1004C0004FE7B1FBF2FC010C41EA0E4180B240EA79
:1004D00001423B4638463C46B846BE462026B1FB64
:1004E000F7F1A2EB080241EA0C4166E7014618E782
:1004F00010462CE7C6F120022EFA02F3B740B140B5
:1005000020FA02F24FEA174E0A43B3FBFEF8BCB2E0
:100510000EFB1833110C41EA034108FB04F9B0400B
:1005200089454FEA104380B23ED9791808F1FF3C63
:1005300001D289451FD8A1EB0901B1FBFEF909FBE6
:1005400004F80EFB191192B242EA0142424529D247
:10055000BA1809F1FF31C4D24245C2D2A9F1020151
:100560003A44BEE7F0459DD2BEEB02036CEB070CAC
:100570000138E14696E7A7EB09094944A8F1020CC6
:10058000B1FBFEF909FB04F8DBE773467FE7504651
:1005900066E70846FDE63B44023A33E7ACF1020C5D
:1005A0003B441CE749469CE7A1EB0901C446B1FB6B
:1005B000FEF909FB04F8C4E7704700BF80B500AF3F
:1005C00001F0B6F9002005F038F8034B1B78184607
:1005D00005F04EFD00BF80BD9D00002090B5ADF23E
:1005E000644D00AF04460846114607F58C63A3F23C
:1005F0005A4322461A8007F58C63A3F25C430246F5
:100600001A8007F58C63A3F25E430A461A8002F053
:1006100029F8034687F83734994B1A78994B1B7899
:100620009A4200F0AD80974B1A78954B1A70954B13
:100630001B78052B00F2A48001A252F823F000BF22
:100640005906000875060008EF0600083F07000875
:1006500063070008750700088B4B1B78184605F0E8
:1006600007FD8A4B00221A70894B00221A7002F093
:100670009FF885E0864B00221A70864B02221A6092
:10068000854B00221A60854B00221A60844B0022A1
:100690001A600023C7F85C3414E0824AD7F85C344F
:1006A0009B0013444FF000021A607F4AD7F85C3475
:1006B0009B0013444FF000021A60D7F85C340133FA
:1006C000C7F85C34D7F85C347F2BE6DD00F0BCFD66
:1006D000764B00221A70764BFF221A70734B1B78F0
:1006E0007449184605F07EFD05F080FB48E006F0F1
:1006F0009BFA0346704A1360664B02221A60664BEF
:1007000000221A60614B00221A7005F00BFA05F006
:100710006DFB0023C7F858340CE0684AD7F858340A
:100720009B0013444FF000021A60D7F8583401338D
:10073000C7F85834D7F858347F2BEEDD20E0604BF3
:1007400000221A7000F080FD584B00221A70584B9E
:10075000FF221A70554B1B785649184605F0A8FE23
:100760000EE0584B00221A70564B1B78184605F0C5
:10077000B1FF05E0544B00221A7006F0DDF800BF0F
:10078000404B1B78002B5AD197F83734022B10D1ED
:100790003D4B1B78002B05D03B4B1B78013BDAB25D
:1007A000394B1A70384B1B78184605F061FC00F085
:1007B00030BD97F83734032B10D1334B1B78032B04
:1007C00005D8314B1B780133DAB22F4B1A702E4B00
:1007D0001B78184605F04CFC00F01BBD97F8373429
:1007E000042B40F01685284B1B78042B00F2118552
:1007F00001A252F823F000BF0D08000817080008F6
:10080000210800082B080008350800081D4B0122AC
:100810001A7000F0FEBC1B4B02221A7000F0F9BCEB
:10082000184B03221A7000F0F4BC164B04221A7005
:1008300000F0EFBC134B05221A7000F0EABC114B1C
:100840001B78012B40F0818106F0EEF902461A4B2D
:100850001B68D31AC7F818340D4B1B78002B7FD1B7
:1008600097F83734022B31D1104B1B78002B3BD03B
:100870000E4B1B78013BDAB20C4B1A7034E000BF10
:10088000010000209C0000209D000020E1000020CD
:10089000E0000020F0000020F4000020A000002074
:1008A000F80A0020F8060020F8080020E3000020E5
:1008B00000000020E4000020DC000020F800002000
:1008C000E2000020A4000020A500002097F83734A3
:1008D000032B09D1B94B1B78082B05D8B74B1B78D4
:1008E0000133DAB2B54B1A70B54B1A78B34B1B789B
:1008F0009A4209D0B14B1B78B249184605F072FCF8
:10090000AE4B1A78AE4B1A7097F83734042B1ED1C1
:10091000AA4B1B781A46AB4B9B5C002B17D0AA4BFB
:1009200001221A7006F080F90346A84A1360A34B0F
:100930001B78A749184600F0D9FC05F0EDFA05F040
:10094000C5FF1F2328228021A14804F0F3FF97F858
:100950003734012B40F0ED809E4B00221A70E8E006
:10096000994B1B78012B26D1D7F818349A4AA2FB51
:1009700003239B09C3F10303C7F85434D7F8543455
:10098000002B02DC0123C7F85434D7F8540405F0D7
:100990007BF9D7F8183440F6B732934240F2C98059
:1009A000894B02221A7006F03FF90346874A13600A
:1009B00005F0A0F9BDE0844B1B78022B40F0B98014
:1009C00000F096FE0346002B00F0B38000F09CFE82
:1009D000824B1B68002B05DD804B1B68013B7F4A67
:1009E0001360A6E07E4B1B6801337D4A13607C4B8D
:1009F0001B68184605F08EF900F062FFC7F8140472
:100A000000F068FF07F5826383ED000A4FF4FC6392
:100A100082228021D7F8140404F08CFF0023C7F849
:100A200050341CE06F4AD7F850349B00134493EDC8
:100A3000007AD7F850349B00D7F814241344D3ED30
:100A4000007A77EE277A674AD7F850349B00134430
:100A5000C3ED007AD7F850340133C7F85034D7F8D3
:100A600050347F2BDEDD604B1B6801335E4A136020
:100A70000023C7F84C341AE05A4AD7F84C349B008C
:100A80001344D3ED006A584B1B6807EE903AB8EE5A
:100A9000E77AC6EE877A554AD7F84C349B00134460
:100AA000C3ED007AD7F84C340133C7F84C34D7F88B
:100AB0004C347F2BE0DD07F58C63A3F25E43B3F982
:100AC000002007F58C63A3F25C43B3F9001007F52F
:100AD0008C63A3F25A43B3F9003007F5826090EDBE
:100AE000000A184605F092F880224049384800F084
:100AF0007BFCC7F80C04D7F80C0405F0B7F93C4BA5
:100B00005B7A002B08D0D7F80C34022B02D101F00D
:100B100048FE01E001F04CFE354B1B7A1A46304B83
:100B20001B689A4205DC2E4B00221A60294B0022DA
:100B30001A7097F83734012B40F06B83224B002258
:100B40001A70244B00221A7063E3224B1B78022B8D
:100B500040F0438106F068F802461C4B1B68D31A2C
:100B6000C7F82434234B1B78002B45D1D7F8243405
:100B7000194AA2FB03239B09C3F10303C7F84834B6
:100B8000D7F84834002B02DC0123C7F84834D7F8E3
:100B9000480405F079F8D7F8243440F6B732934288
:100BA00040F20F81134B01221A7006F03DF8034604
:100BB000064A136005F09EF803E100BFE300002041
:100BC00000000020E4000020E0000020DC00002005
:100BD000F80400209C000020D34D6210F00000209B
:100BE000F4000020F8060020F80A0020F808002091
:100BF00024150020E1000020844B1B78012B40F0DD
:100C0000A28000F075FD0346002B00F0DA8000F0B2
:100C10007BFD7F4B1B68002B05DD7D4B1B68013B7B
:100C20007B4A1360CDE07B4B1B680133794A13602C
:100C3000784B1B68184605F06DF800F041FEC7F8C8
:100C4000200400F047FE07F21C4383ED000A8021D8
:100C5000D7F8200404F010FE07F58C63A3F25E437E
:100C6000B3F9002007F58C63A3F25C43B3F90010DD
:100C700007F58C63A3F25A43B3F9003007F21C4026
:100C800090ED000A184604F0C1FF0023C7F8443471
:100C90001CE0614AD7F844349B00134493ED007A7A
:100CA000D7F844349B00D7F820241344D3ED007ABE
:100CB00077EE277A584AD7F844349B001344C3EDA3
:100CC000007AD7F844340133C7F84434D7F84434B1
:100CD0007F2BDEDD514B1B7A1A464E4B1B689A4226
:100CE0006FDC0023C7F840341AE04B4AD7F8403491
:100CF0009B001344D3ED006A484B1B7A07EE903AF1
:100D0000B8EEE77AC6EE877A454AD7F840349B00BA
:100D10001344C3ED007AD7F840340133C7F84034A8
:100D2000D7F840347F2BE0DD384B02221A7000F0F8
:100D30008BFA3C4B00221A703A4B1B783A49184602
:100D400005F0F6FA3DE0314B1B78022B39D197F8CC
:100D50003734022B0AD1334B1B78002B14D0314B84
:100D60001B78013BDAB22F4B1A700DE097F837343D
:100D7000032B09D12B4B1B78082B05D8294B1B784B
:100D80000133DAB2274B1A70284B1A78254B1B789F
:100D90009A4209D0234B1B782349184605F0C8FA1C
:100DA000204B1A78214B1A7097F83734042B08D14E
:100DB0001C4B1B781A49184600F074FA1C4B002291
:100DC0001A7097F83734012B40F023820F4B002222
:100DD0001A70174B00221A701BE2154B1B78032B5D
:100DE00040F0D080134B1B78002B40F0898097F89F
:100DF0003734022B20D10B4B1B78002B2AD0094B08
:100E00001B78013BDAB2074B1A7023E0E1000020A7
:100E1000F0000020F4000020F8000020241500203D
:100E2000F8020020E3000020E40000200000002081
:100E30009C000020E200002097F83734032B09D1F2
:100E4000914B1B78082B05D88F4B1B780133DAB2F6
:100E50008D4B1A708D4B1A788B4B1B789A4209D0A8
:100E6000894B1B788A49184605F022FB864B1A7875
:100E7000864B1A7097F83734042B25D1824B1B7898
:100E80001A46834B9B5C002B1ED0824B01221A70AA
:100E90007D4B1B788049184600F028FA7E4800F008
:100EA0003BFA07F5856383ED000A04F03BFE8021E1
:100EB000794804F0E1FC744B1B7807F5856292EDEC
:100EC000000A184604F0A0FF97F83734052B0ED11E
:100ED0006D4B1B781A466E4B9B5C002B07D06D4BFD
:100EE00002221A70684B1B78184605F095FB97F89C
:100EF0003734012B40F08D81684B00221A7088E155
:100F0000644B1B78012B11D197F83734012B40F03B
:100F10008081604B00221A705C4BFF221A705A4B82
:100F20001B785B49184605F0C3FA72E1594B1B78F0
:100F3000022B40F06E8197F83734042B10D1524BBE
:100F40001B78184600F03AFA524B00221A704F4BA9
:100F5000FF221A704C4B1B784D49184605F0A8FA31
:100F600097F83734012B40F054814A4B00221A7015
:100F7000464BFF221A70444B1B784549184605F032
:100F800097FA46E1454B1B78042B40F0938097F885
:100F90003734022B0FD1424B1B78002B05D0404B2E
:100FA0001B78013BDAB23E4B1A703D4B1B7818465A
:100FB00005F090FB2DE197F83734032B0FD1384B18
:100FC0001B78012B05D8364B1B780133DAB2344B32
:100FD0001A70334B1B78184605F07CFB19E197F823
:100FE0003734042B47D12E4B1B78022B30D0022BE9
:100FF0003BDC002B02D0012B1AD036E0294BD3ED7D
:10100000017A9FED297A77EE877A264BC3ED017A34
:10101000244BD3ED017A9FED257AF4EEC77AF1EEF9
:1010200010FA02DD1F4B224A5A6000F0C7FC1CE098
:101030001C4B1B7A0A33DAB21A4B1A72194B1B7A01
:10104000642B02D9174B0A221A7200F0B7FC0CE08D
:10105000144B5B7A002B0CBF01230023DBB21A4632
:10106000104B5A7200F0AAFC00BF0D4B1B781846BB
:1010700005F030FBCDE097F83734012B40F0C98004
:10108000064B00221A70C4E0E3000020000000209C
:10109000E4000020E2000020F80400209C00002072
:1010A000A40000202415002000007A4400401C46C3
:1010B00000007A44594B1B78052B40F0AA80584B0E
:1010C0001B78002B03D0564B1B78022B04D1544BBA
:1010D0001B78184605F0D4FC524B1B78002B2BD004
:1010E000504B00221A7050495048FFF771F80346E0
:1010F000002B06D14A4B01221A70012005F074FC26
:101100001AE04B494948FFF763F80346002B06D124
:10111000434B02221A70022005F066FC0CE04549A0
:101120004248FFF755F80346002B05D13C4B0022FF
:101130001A70002005F058FC394B1B78022B60D147
:1011400000F0D6FA0346002B5BD000F0DDFA00F089
:10115000B7FBC7F830040023C7F83C34D7F83C3459
:1011600007F10C021344344918460AF071F902469B
:10117000D7F83C341344C7F83C340023C7F838345C
:1011800023E0D7F838349B00D7F830241344D3ED4C
:10119000007AFDEEE77A17EE903AC7F82C34D7F8CC
:1011A0003C3407F10C021344D7F82C242349184689
:1011B0000AF04EF90246D7F83C341344C7F83C34E1
:1011C000D7F838340133C7F83834D7F838347F2BA0
:1011D000D7DDD7F83C3407F10C0213441849184600
:1011E0000AF036F90246D7F83C341344C7F83C34C9
:1011F000D7F83C349AB207F10C016423114809F086
:101200003BF897F83734012B03D1044B00221A70B6
:10121000FFE700BF07F26447BD4690BD9C00002079
:10122000A5000020DA000020ECBD0008A800002086
:10123000F4BD0008FCBD000804BE00080CBE000898
:1012400010BE00082816002080B584B000AF00232F
:10125000FB601AE0FB681B03BB603B1D04221946C0
:10126000B86804F0A9F87B680C4A934205D10C4A8F
:10127000FB68134401221A7004E0094AFB68134416
:1012800000221A70FB680133FB60FB68092BE1DD6B
:1012900000BF00BF1037BD4680BD00BFEFBEADDE52
:1012A000E400002080B584B000AF03463960FB71D4
:1012B000FB791B03FB60F86804F0A5F80A4BBB60E0
:1012C00007F1080304221946F86804F0BFF8FB6828
:1012D00004334FF400723968184604F0B7F800BFC1
:1012E0001037BD4680BD00BFEFBEADDE80B584B017
:1012F00000AF03463960FB71FB791B03FB60FB68A1
:1013000004334FF400723968184604F055F800BFF2
:101310001037BD4680BD000080B487B000AF786054
:101320004FF000037B6100233B610123FB6017E06A
:10133000FB689B007A681344D3ED007A97ED057A39
:10134000B4EEE77AF1EE10FA07D5FB689B007A68F5
:1013500013441B687B61FB683B61FB680133FB60E6
:10136000FB687F2BE4DDD7ED057A9FED107AF4EE74
:10137000C77AF1EE10FA0DDD3B6907EE903AF8EE10
:10138000E77A9FED0B7A67EE877ADFED0A6A87EEE0
:10139000A67A01E09FED087AF0EE477AB0EE670A90
:1013A0001C37BD465DF8047B704700BF0000A042BB
:1013B0000000C843000080430000000080B584B0F6
:1013C00000AF0346FB71FB791B03FB60F86804F078
:1013D0001AF8FB79034A0021D15400BF1037BD46EB
:1013E00080BD00BFE400002080B495B000AFF8607D
:1013F000B9607A600123FB644FF00003BB640123F2
:101400007B6417E07B6C9B00FA681344D3ED007A91
:1014100097ED127AB4EEE77AF1EE10FA07D57B6C0D
:101420009B00FA6813441B68BB647B6CFB647B6C99
:1014300001337B647A6C7B689A42E3DB01233B6473
:101440004FF00003FB630123BB6317E0BB6B9B0002
:10145000BA681344D3ED007A97ED0F7AB4EEE77AC9
:10146000F1EE10FA07D5BB6B9B00BA6813441B68FA
:10147000FB63BB6B3B64BB6B0133BB63BA6B7B68C9
:101480009A42E3DBD7ED127A9FED7C7AF4EEC77ACD
:10149000F1EE10FA04D57A4B00221A600023E7E03F
:1014A000FA6C3B6CD31A07EE903AF8EEE77A9FEDB0
:1014B000757A27EE877ADFED746AC7EE267AF0EE4A
:1014C000E77AC7ED057AD7ED0F6A97ED127AC6EE87
:1014D000877AC7ED0D7AD7ED0D7AB7EE007AF4EE84
:1014E000C77AF1EE10FA07D5F7EE006A97ED0D7A9C
:1014F000C6EE877AC7ED0D7A4FF000033B634FF0DD
:101500000003FB62FB6C033BBB62FB6C03337B623F
:10151000BB6A002B01DC0123BB627A6A7B689A42BA
:1015200002DB7B68013B7B62BB6A3B621AE03B6A81
:101530009B00FA681344D3ED007A97ED0C7A77EEAE
:10154000277AC7ED0C7A3B6A9B00BA681344D3ED47
:10155000007A97ED0B7A77EE277AC7ED0B7A3B6A24
:1015600001333B623A6A7B6A9A42E0DDD7ED0C7A3E
:10157000B7EE007AF4EEC77AF1EE10FA02D54FF02A
:101580007E533B63D7ED0B7AB7EE007AF4EEC77A61
:10159000F1EE10FA02D54FF07E53FB62D7ED0B6AE5
:1015A00097ED0C7AC6EE877AC7ED077AD7ED077A02
:1015B000B7EE007AF4EEC77AF1EE10FA07D5F7EE3F
:1015C000006A97ED077AC6EE877AC7ED077AD7EDFE
:1015D000057AB1EE047AF4EEC77AF1EE10FA14D57A
:1015E000D7ED0D7AB7EE087AF4EEC77AF1EE10FA7D
:1015F0000BD5D7ED077AB7EE087AF4EEC77AF1EE9D
:1016000010FA02D50023BB611FE0D7ED057AB2EED8
:10161000087AF4EEC77AF1EE10FA14D5D7ED0D7A08
:10162000B0EE047AF4EEC77AF1EE10FA0BD5D7EDEE
:10163000077AB0EE047AF4EEC77AF1EE10FA02D52A
:101640000123BB6101E00223BB61BB69022B05D111
:101650000B4B1B6801330A4A136002E0084B00225F
:101660001A60074B1B68022B01DD022300E0BB69F7
:1016700018465437BD465DF8047B70470000A04211
:10168000A00000200000C8430000804380B500AFE8
:101690004FF48071024803F0AFFD00BF80BD00BF72
:1016A000FC0A002080B483B000AF87ED010A0D4B27
:1016B0001B885A1C91B20B4A11800B4A9B001344A1
:1016C0007A681A60074B1B88FF2B05D9054B00224F
:1016D0001A80064B01221A7000BF0C37BD465DF818
:1016E000047B704714150020140B002016150020F1
:1016F00080B400AF034B1B781846BD465DF8047BF1
:10170000704700BF1615002080B588B000AF614B50
:1017100000221A704FF00003FB610023BB610EE052
:101720005D4ABB699B001344D3ED007A97ED077ABD
:1017300077EE277AC7ED077ABB690133BB61BB69D6
:10174000FF2BEDDD97ED077ADFED546AC7EE267AC1
:10175000C7ED077A00237B6112E04F4A7B699B004B
:10176000134493ED007AD7ED077A77EE677A4A4A09
:101770007B699B001344C3ED007A7B6901337B6175
:101780007B69FF2BE9DD0023454A4349454803F0C7
:10179000D3FB00233B6127E03B695B00404A9B0091
:1017A00013441B68BB603B695B0001333C4A9B00F0
:1017B00013441B687B60D7ED027A27EEA77AD7ED3A
:1017C000017A67EEA77A77EE277AB0EE670A0AF019
:1017D000DFFAF0EE407A344A3B699B001344C3EDD4
:1017E000007A3B6901333B613B697F2BD4DD2F4B92
:1017F0004FF000021A602E4B00221A600123FB609A
:101800001AE0294AFB689B00134493ED007A274BAA
:10181000D3ED007AB4EEE77AF1EE10FA09DD224A50
:10182000FB689B0013441B68204A1360204AFB6836
:101830001360FB680133FB60FB687F2BE1DD1B4B12
:10184000D3ED007A9FED1B7AF4EEC77AF1EE10FA31
:1018500011DD174B1B6807EE903AF8EEE77A9FED23
:10186000167A27EE877ADFED0D6AC7EE267A134BDC
:10187000C3ED007A0AE0114B4FF000021A600C4BE6
:1018800000221A60094B4FF000021A6000BF203797
:10189000BD4680BD16150020140B002000008043BB
:1018A000140F0020FC0A0020141300202015002033
:1018B0001C1500200000A0420000C843181500209D
:1018C00080B400AF024B1846BD465DF8047B7047FC
:1018D0001413002080B400AF044B1B6807EE903A4D
:1018E000B0EE670ABD465DF8047B7047181500200E
:1018F00080B400AF0B4B0C4A1A600A4B0B4A5A607B
:10190000084B1E221A72074B00225A72054B002206
:101910009A72044B0022DA7200BFBD465DF8047B68
:10192000704700BF241500205A5AA5A500803B45EA
:1019300080B500AF0C221C494FF4204003F03CFD61
:10194000194B1B68194A934204D0FFF7D1FF00F0EE
:1019500035F828E0144BD3ED017A9FED157AF4EEBB
:10196000C77AF1EE10FA09D40F4BD3ED017A9FED4F
:10197000117AF4EEC77AF1EE10FA02DD0A4B0E4A44
:101980005A60094B1B7A002B03D0074B1B7A642B40
:1019900002D9054B1E221A72034B5B7A012B02D926
:1019A000014B01225A7280BD241500205A5AA5A568
:1019B0000000C84200409C4600803B4580B500AF17
:1019C000074B084A1A604FF4204003F01CFD0C221C
:1019D00003494FF4204003F039FD00BF80BD00BF34
:1019E000241500205A5AA5A580B582B000AF7860B2
:1019F0007B681B68154A934224D1154B1B78232B17
:101A00000CD1144B1B781A46134B00219954134BDD
:101A100001221A700F4B00221A700EE00D4B1B783A
:101A2000302B0AD80B4B1B785A1CD1B2094A1170C3
:101A30001A46074B1978084B995401220449084863
:101A400008F0A5FC00BF0837BD4680BD001001406E
:101A50003015002031150020A8000020DA000020F9
:101A60002816002080B584B000AF05F077F8642018
:101A700005F0E6F800F07EF800F0C2F900F07EFA1A
:101A800000F0E2F800F00EF900F090F900F040F9F3
:101A900000F080FE03F08EFEFEF790FD00F042FDA8
:101AA000FFF7F4FD2C4807F077FF01222B492C4863
:101AB00008F06DFC2B4B1B78DBB2002B3FD0294B81
:101AC00000221A70284A2949294800F057FD034688
:101AD000002B34D1264BB3F9003007EE903AF8EEE4
:101AE000E77AC7ED037A214BB3F9003007EE903A5D
:101AF000F8EEE77AC7ED027A1B4BB3F9003007EE38
:101B0000903AF8EEE77AC7ED017AD7ED037A27EE3F
:101B1000A77AD7ED027A67EEA77A37EE277AD7ED64
:101B2000017A67EEA77A77EE277AB0EE670A0AF0B5
:101B30002FF987ED000A97ED000AFFF7B3FD0C4B74
:101B4000B3F90030094AB2F90010074AB2F900208F
:101B50001846FEF743FDADE7E015002030150020E4
:101B600028160020D0160020C4160020C21600201F
:101B7000C016002080B594B000AF07F120033022DA
:101B80000021184609F086FC07F10C0300221A60B8
:101B90005A609A60DA601A610023BB60284B1B6CA4
:101BA000274A43F080531364254B1B6C03F080538A
:101BB000BB60BB6800237B60224B1B68214A43F457
:101BC000804313601F4B1B6803F480437B607B687A
:101BD00001233B624FF480337B620223BB634FF4EB
:101BE0008003FB6308233B644FF4A8737B640223E8
:101BF000BB640423FB6407F12003184606F0CAFB0C
:101C00000346002B01D000F02FFA0F23FB600223C4
:101C10003B6100237B614FF4A053BB614FF48053C1
:101C2000FB6107F10C030521184606F02BFE034665
:101C3000002B01D000F018FA00BF5037BD4680BD20
:101C4000003802400070004080B500AF124B134ACC
:101C50001A60114B124A5A600F4B00229A600E4BC9
:101C60000022DA600C4B4FF480421A610A4B0022CA
:101C70005A61094B00229A61074B0022DA61064B38
:101C800000221A62044805F071FB0346002B01D0C4
:101C900000F0EAF900BF80BD341500200054004078
:101CA000801A060080B500AF174B184A1A60164B11
:101CB0004FF482725A60144B00229A60124B002239
:101CC000DA60114B00221A610F4B00225A610E4B51
:101CD0004FF400729A610C4B1822DA610A4B002211
:101CE0001A62094B00225A62074B00229A62064B85
:101CF0000A22DA62044806F0E5FF0346002B01D011
:101D000000F0B2F900BF80BD88150020003001400E
:101D100080B586B000AF07F1080300221A605A6050
:101D20009A60DA603B4600221A605A601D4B1E4AD8
:101D30001A601C4B42F2CF025A601A4B00229A6082
:101D4000184B1822DA60174B00221A61154B8022BB
:101D50009A61144807F0D0FD0346002B01D000F033
:101D600083F94FF48053BB6007F1080319460D480F
:101D700007F072FF0346002B01D000F075F9002335
:101D80003B6000237B603B461946064808F094F907
:101D90000346002B01D000F067F900BF1837BD469D
:101DA00080BD00BFE01500200004004080B500AFFA
:101DB000114B124A1A60104B4FF4E1325A600E4B2D
:101DC00000229A600C4B0022DA600B4B00221A6151
:101DD000094B0C225A61084B00229A61064B0022E3
:101DE000DA61054808F0F8F90346002B01D000F04D
:101DF0003BF900BF80BD00BF281600200010014045
:101E000080B58CB000AF07F11C0300221A605A6045
:101E10009A60DA601A610023BB61544B1B6B534A12
:101E200043F010031363514B1B6B03F01003BB61B2
:101E3000BB6900237B614D4B1B6B4C4A43F0800315
:101E400013634A4B1B6B03F080037B617B690023A8
:101E50003B61464B1B6B454A43F004031363434B02
:101E60001B6B03F004033B613B690023FB603F4BAA
:101E70001B6B3E4A43F0010313633C4B1B6B03F0A7
:101E80000103FB60FB680023BB60384B1B6B374AC8
:101E900043F002031363354B1B6B03F00203BB607B
:101EA000BB6800237B60314B1B6B304A43F0080357
:101EB00013632E4B1B6B03F008037B607B680122CE
:101EC00018212B4805F038FA00221021294805F086
:101ED00033FA01220321284805F02EFA1823FB616A
:101EE00001233B6200237B620023BB6207F11C03DA
:101EF00019461F4805F06CF80F23FB6100233B6275
:101F000001237B6207F11C0319461A4805F060F8AB
:101F10001023FB6101233B6200237B620023BB6231
:101F200007F11C031946134805F052F80123FB6121
:101F300001233B6200237B620123BB6207F11C0388
:101F400019460D4805F044F80223FB6101233B626A
:101F500000237B620023BB6207F11C03194606487D
:101F600005F036F800BF3037BD4680BD003802406E
:101F700000100240000802400004024080B588B012
:101F800000AF3B1D00221A605A609A60DA601A6145
:101F90005A619A61274B4FF020421A60254B264A1E
:101FA0005A60244B00229A60224B0022DA60214BB7
:101FB00000221A611F4B10225A611E4B00229A61A7
:101FC0001C4B0022DA611B4B00221A62194B0022C3
:101FD0005A62184B4FF480529A62164B0022DA6212
:101FE000144B00221A63134B00225A63114B002238
:101FF0009A63104B00225A6405237B600F23BB6059
:102000000923FB6000233B6110237B611123BB612B
:102010000023FB613B1D00221946064807F024FC03
:102020000346002B01D000F01FF800BF2037BD464B
:1020300080BD00BF70160020040100A080B483B0F2
:1020400000AF78607B681B68054A934202D1054B5C
:1020500001221A7000BF0C37BD465DF8047B704743
:1020600000040040D016002080B400AF72B600BF5C
:1020700000BFFDE780B483B000AF00237B60104B4E
:102080005B6C0F4A43F4804353640D4B5B6C03F469
:1020900080437B607B6800233B60094B1B6C084AD4
:1020A00043F080531364064B1B6C03F080533B607A
:1020B0003B6800BF0C37BD465DF8047B704700BF2E
:1020C0000038024080B58AB000AF786007F1140391
:1020D00000221A605A609A60DA601A617B681B6895
:1020E000194A93422BD100233B61184B1B6B174AB3
:1020F00043F002031363154B1B6B03F002033B61B8
:102100003B69C0237B611223BB610023FB61032376
:102110003B6204237B6207F1140319460C4804F068
:1021200057FF0023FB60094B1B6C084A43F4001364
:102130001364064B1B6C03F40013FB60FB6800BFC9
:102140002837BD4680BD00BF005400400038024023
:102150000004024080B58AB000AF786007F1140334
:1021600000221A605A609A60DA601A617B681B6804
:10217000194A93422BD100233B61184B5B6C174AE1
:1021800043F480535364154B5B6C03F480533B6101
:102190003B690023FB60114B1B6B104A43F00103AA
:1021A00013630E4B1B6B03F00103FB60FB68E02322
:1021B0007B610223BB610023FB6103233B62052398
:1021C0007B6207F114031946054804F001FF00BFC4
:1021D0002837BD4680BD00BF0030014000380240B6
:1021E0000000024080B584B000AF78607B681B6857
:1021F0000E4A934215D10023FB600D4B1B6C0C4A19
:1022000043F0020313640A4B1B6C03F00203FB60F0
:10221000FB68002200211D2004F011FE1D2004F0A7
:102220002AFE00BF1037BD4680BD00BF000400403D
:102230000038024080B58AB000AF786007F114031F
:1022400000221A605A609A60DA601A617B681B6823
:102250001D4A934234D100233B611C4B5B6C1B4AEB
:1022600043F010035364194B5B6C03F010033B61A4
:102270003B690023FB60154B1B6B144A43F00103C1
:102280001363124B1B6B03F00103FB60FB684FF4FD
:10229000C0637B610223BB610023FB6103233B62BC
:1022A00007237B6207F114031946094804F090FEE6
:1022B00000220021252004F0C2FD252004F0DBFDD2
:1022C00000BF2837BD4680BD0010014000380240E5
:1022D0000000024080B586B000AF3B1D00221A60AE
:1022E0005A609A60DA601A611C4B1B68002B31D16E
:1022F0001A4B01221A6000233B60194B9B6B184A52
:1023000043F001039363164B9B6B03F001033B60A7
:102310003B684FF680737B600223BB600023FB6049
:1023200003233B610C237B613B1D19460D4804F0E0
:102330004FFE4EF2B3737B600223BB600023FB6051
:1023400003233B610C237B613B1D1946064804F0C7
:102350003FFE00E000BF1837BD4680BDC816002014
:102360000038024000100240000C024080B582B0EC
:1023700000AF7860FFF7AEFF00BF0837BD4680BDF5
:1023800080B400AF00BFFDE780B400AF00BFFDE741
:1023900080B400AF00BFFDE780B400AF00BFFDE731
:1023A00080B400AF00BFFDE780B400AF00BFBD4602
:1023B0005DF8047B704780B400AF00BFBD465DF898
:1023C000047B704780B400AF00BFBD465DF8047B5E
:1023D000704780B500AF04F013FC00BF80BD000063
:1023E00080B500AF024807F047FB00BF80BD00BFCB
:1023F000E015002080B500AF024807F0EDFF00BFF8
:1024000080BD00BF2816002080B586B000AF786080
:10241000144A154BD31A7B617B693B61134B1B68D4
:10242000002B02D1114B124A1A60104B1A687B68BC
:1024300013443A699A4207D209F034F803460C2251
:102440001A604FF0FF3309E0084B1B68FB60074B35
:102450001A687B681344054A1360FB6818461837EE
:10246000BD4680BD0000022000040000CC16002004
:102470003818002080B400AF064BD3F88830054AE6
:1024800043F47003C2F8883000BFBD465DF8047B9A
:10249000704700BF00ED00E0DFF834D0FFF7EAFF3F
:1024A0000C480D490D4A002302E0D458C4500433AF
:1024B000C4188C42F9D30A4A0A4C002301E0136085
:1024C0000432A242FBD308F0F3FFFFF7CBFA7047C8
:1024D00000000220000000208000002078BD0208DB
:1024E0008000002038180020FEE7000080B586B08C
:1024F00002AF03460A46FB711346BB71FB793B737F
:10250000BB797B7307F10C02642300930223A6219D
:10251000034805F06FF8034618461037BD4680BDE6
:102520003415002080B586B004AF642302930123E4
:102530000193FB1D009301230022A6210E4805F004
:1025400057F90346002B01D0002311E0FB79E52B5E
:1025500001D000230CE009213120FFF7C7FF0C2137
:102560002C20FFF7C3FF08212D20FFF7BFFF012319
:1025700018460837BD4680BD3415002080B58AB0A6
:1025800004AFF860B9607A60642302930623019374
:1025900007F11003009301233222A621164805F00B
:1025A00027F90346FB75FB7D002B01D0FB7D1EE068
:1025B0007B7C1BB21B021AB23B7C1BB213431AB2C8
:1025C000FB681A80FB7C1BB21B021AB2BB7C1BB2DD
:1025D00013431AB2BB681A807B7D1BB21B021AB26E
:1025E0003B7D1BB213431AB27B681A800023184646
:1025F0001837BD4680BD00BF3415002080B584B0BB
:1026000000AF0346FB71FB79032B17D801A252F8E8
:1026100023F000BF252600082B26000831260008DD
:10262000372600080123FB810AE00223FB8107E033
:102630000423FB8104E00823FB8101E000230AE07E
:10264000FB891946064804F05FFE0346002B0CBFC9
:1026500001230023DBB218461037BD4680BD00BF02
:102660000008024080B584B000AF04F0DDFAB86025
:102670003B4B1B68BA68D31A312B01D800236AE0A0
:102680000023FB6063E0FB68DBB21846FFF7B6FF90
:102690000346FB71FB68032B28D1FB79012B0AD180
:1026A000304B1B78002B06D12E4B01221A702E4A7C
:1026B000BB68136047E0FB79002B44D1294B1B78A2
:1026C000012B40D1284B1B68BA68D31A3B60254BBD
:1026D00000221A70224ABB6813603B6840F6B7328A
:1026E000934201D9052336E0042334E0FB79012B22
:1026F00020D11E4AFB6813441B78002B1AD11B4AB9
:10270000FB68134401221A70154ABB681360FB680A
:10271000022B0DD0FB68022B0CDCFB68002B03D0D6
:10272000FB68012B02D005E0012314E0022312E034
:10273000032310E0FB79002B06D10C4AFB681344FD
:1027400000221A7000E000BFFB680133FB60FB68E9
:10275000032B98DD002318461037BD4680BD00BF0F
:10276000D4160020E0160020DC160020D816002029
:1027700080B582B000AF0346FB71FB791A46102189
:10278000034804F0D9FD00BF0837BD4680BD00BF37
:102790000008024080B500AF0020FFF7E9FF00BF4E
:1027A00080BD80B500AF0120FFF7E2FF00BF80BD14
:1027B00080B500AF0020FFF7DBFF00BF80BD80B415
:1027C00089B000AFF8600B467A607B810023FB6123
:1027D00043E0FB695B007A6813441B889B089BB24B
:1027E000BB61FB6901335B007A6813441B889B085B
:1027F0009BB27B61BB699B00FA6813441B683B6119
:102800007B699B00FA681A44BB699B00F9680B441A
:1028100012681A607B699B00FA6813443A691A606F
:10282000BB6901339B00FA6813441B683B617B69F9
:1028300001339B00FA681A44BB6901339B00F968B5
:102840000B4412681A607B6901339B00FA681344D9
:102850003A691A60FB690233FB617B89FA699A4223
:10286000B7D300BF00BF2437BD465DF8047B704777
:1028700080B5A0B000AF786039607B681B88BB660C
:10288000BB6E9B003A6813447B677B685B683B6761
:102890003B687B667B6F3B66BB6E5B08BB66BB6E53
:1028A0009B003A681344FB67BB6E9B007A6F13442E
:1028B000BB67BB6E9B08FB66B6E13B681B68BB63EE
:1028C0003B685B68FB633B689B683B643B68DB6819
:1028D0007B647B6F1B68BB627B6F5B68FB627B6F9B
:1028E0009B683B637B6FDB687B63FB6F1B68BB6133
:1028F000FB6F5B68FB61FB6F9B683B62FB6FDB6898
:102900007B62BB6F1B68BB60BB6F5B68FB60BB6FB0
:102910009B683B61BB6FDB687B6197ED0E7AD7EDFF
:102920000A7A3B681A1D3A6077EE277AC3ED007A7F
:1029300097ED0F7AD7ED0B7A3B681A1D3A6077EE68
:10294000277AC3ED007A97ED107AD7ED0C7A3B68C1
:102950001A1D3A6077EE277AC3ED007A97ED117A67
:10296000D7ED0D7A3B681A1D3A6077EE277AC3EDF2
:10297000007A97ED0E7AD7ED0A7A77EE677AC7ED8F
:102980000A7A97ED0F7AD7ED0B7A77EE677AC7ED73
:102990000B7A97ED107AD7ED0C7A77EE677AC7ED60
:1029A0000C7A97ED117AD7ED0D7A77EE677AC7ED4D
:1029B0000D7A97ED067AD7ED027AFB6F1A1DFA674A
:1029C00077EE277AC3ED007A97ED077AD7ED037A91
:1029D000FB6F1A1DFA6777EE277AC3ED007A97ED41
:1029E000087AD7ED047AFB6F1A1DFA6777EE277A1B
:1029F000C3ED007A97ED097AD7ED057AFB6F1A1DC2
:102A0000FA6777EE277AC3ED007A97ED027AD7ED71
:102A1000067A77EE677AC7ED027A97ED037AD7EDFB
:102A2000077A77EE677AC7ED037A97ED047AD7EDE8
:102A3000087A77EE677AC7ED047A97ED057AD7EDD5
:102A4000097A77EE677AC7ED057A3B6F1A1D3A6708
:102A50001B68FB653B6F1A1D3A671B68BB65D7EDAA
:102A60000A7A97ED177A67EE277AC7ED157AD7EDD0
:102A70000B7A97ED167A67EE277AC7ED147AD7EDC1
:102A80000B7A97ED177A67EE277AC7ED137AD7EDB1
:102A90000A7A97ED167A67EE277AC7ED127A7B6F7E
:102AA0001A1D7A6797ED157AD7ED147A77EE277AA3
:102AB000C3ED007A7B6F1A1D7A6797ED137AD7ED15
:102AC000127A77EE677AC3ED007AD7ED027A97ED46
:102AD000167A67EE277AC7ED157AD7ED037A97ED68
:102AE000177A67EE277AC7ED147AD7ED037A97ED58
:102AF000167A67EE277AC7ED137AD7ED027A97ED4B
:102B0000177A67EE277AC7ED127ABB6F1A1DBA677C
:102B100097ED157AD7ED147A77EE677AC3ED007AE0
:102B2000BB6F1A1DBA6797ED137AD7ED127A77EE5D
:102B3000277AC3ED007A3B6F1A1D3A671B68FB6565
:102B40003B6F1A1D3A671B68BB65D7ED0C7A97ED92
:102B5000177A67EE277AC7ED157AD7ED0D7A97EDDC
:102B6000167A67EE277AC7ED147AD7ED0D7A97EDCE
:102B7000177A67EE277AC7ED137AD7ED0C7A97EDBF
:102B8000167A67EE277AC7ED127A7B6F1A1D7A677D
:102B900097ED157AD7ED147A77EE277AC3ED007AA0
:102BA0007B6F1A1D7A6797ED137AD7ED127A77EE5D
:102BB000677AC3ED007AD7ED047A97ED167A67EE5F
:102BC000277AC7ED157AD7ED057A97ED177A67EE74
:102BD000277AC7ED147AD7ED057A97ED167A67EE66
:102BE000277AC7ED137AD7ED047A97ED177A67EE57
:102BF000277AC7ED127ABB6F1A1DBA6797ED157A5F
:102C0000D7ED147A77EE677AC3ED007ABB6F1A1DA1
:102C1000BA6797ED137AD7ED127A77EE277AC3ED7C
:102C2000007AFB6E013BFB66FB6E002B7FF445AE2A
:102C3000BB6E99B27B685A680223786E00F0C8FFB9
:102C4000BB6E99B27B685A680223386E00F0C0FFF1
:102C500000BF8037BD4680BD80B5ACB000AF7860A6
:102C600039607B681B885B089BB2C7F88030D7F857
:102C700080309B003A681344C7F89030D7F8803012
:102C80009B00D7F890201344C7F88C30D7F88030D9
:102C90009B00D7F88C201344C7F888303B68FB674B
:102CA000D7F89030BB67D7F88C307B67D7F888307F
:102CB0003B67D7F89030043BC7F8AC30D7F88C307E
:102CC000043BC7F8A830D7F88830043BC7F8A430D5
:102CD000D7F880309B00D7F8A4201344C7F8A03061
:102CE0007B685B68C7F89430D7F89430C7F89830A1
:102CF000D7F89830C7F89C30D7F880305B08C7F811
:102D000080300223FB660423BB6606237B663B6898
:102D100093ED007AD7F88C30D3ED007A77EE277AEE
:102D2000C7ED187A3B6893ED007AD7F88C30D3ED75
:102D3000007A77EE677AC7ED177A3B68043393ED34
:102D4000007AD7F88C300433D3ED007A77EE277A07
:102D5000C7ED167A3B68043393ED007AD7F88C30D0
:102D60000433D3ED007A77EE677AC7ED157AD7F89A
:102D70009030043393ED007AD7ED177A37EE277A47
:102D8000D7F888300433D3ED007A77EE677AC7ED51
:102D90000B7AD7F89030D3ED007A97ED157A37EEAD
:102DA000677AD7F88830D3ED007A77EE277AC7EDC7
:102DB0000C7AD7F89030D3ED007A97ED187A37EE89
:102DC000677AD7F88830D3ED007A77EE677AC7ED67
:102DD000077AD7F890300433D3ED007A97ED167A5E
:102DE00037EE677AD7F888300433D3ED007A77EE80
:102DF000677AC7ED087AD7F890300433D3ED007ABC
:102E000097ED177A37EE677AD7F888300433D3ED29
:102E1000007A77EE277AC7ED037AD7F8903093EDF2
:102E2000007AD7ED157A37EE277AD7F88830D3EDC8
:102E3000007A77EE677AC7ED047AD7F8903093ED91
:102E4000007AD7ED187A37EE277AD7F88830D3EDA5
:102E5000007A3B681A1D3A6077EE277AC3ED007A54
:102E6000D7F89030043393ED007AD7ED167A37EE29
:102E7000277AD7F888300433D3ED007A3B681A1DDF
:102E80003A6077EE277AC3ED007AD7F890301A1DB2
:102E9000C7F89020FA6A1A60D7F890301A1DC7F860
:102EA00090203A6B1A60D7F88C301A1DC7F88C2026
:102EB000FA691A60D7F88C301A1DC7F88C203A6A64
:102EC0001A60D7F888301A1DC7F88820FA681A6087
:102ED000D7F888301A1DC7F888203A691A60FB6E47
:102EE0009B00D7F89C201344C7F89C30BB6E9B0016
:102EF000D7F898201344C7F898307B6E9B00D7F81A
:102F000094201344C7F89430D7F88030023B5B0814
:102F1000C7F884301CE33B6893ED007AD7F88C3017
:102F2000D3ED007A77EE277AC7ED187A3B6893EDF8
:102F3000007AD7F88C30D3ED007A77EE677AC7ED58
:102F4000177A3B68043393ED007AD7F88C3004335A
:102F5000D3ED007A77EE277AC7ED167A3B68043313
:102F600093ED007AD7F88C300433D3ED007A77EE06
:102F7000677AC7ED157AD7F89030043393ED007A6D
:102F8000D7ED177A37EE277AD7F888300433D3EDA8
:102F9000007A77EE677AC7ED0B7AD7F89030D3EDE9
:102FA000007A97ED157A37EE677AD7F88830D3ED47
:102FB000007A77EE277AC7ED0C7AD7F89030D3ED08
:102FC000007A97ED187A37EE677AD7F88830D3ED24
:102FD000007A77EE677AC7ED077AD7F89030043336
:102FE000D3ED007A97ED167A37EE677AD7F8883006
:102FF0000433D3ED007A77EE677AC7ED087AD7F815
:1030000090300433D3ED007A97ED177A37EE677A74
:10301000D7F888300433D3ED007A77EE277AC7EDFE
:10302000037AD7F8903093ED007AD7ED157A37EE22
:10303000277AD7F88830D3ED007A77EE677AC7ED34
:10304000047AD7F8903093ED007AD7ED187A37EEFE
:10305000277AD7F88830D3ED007A3B681A1D3A609A
:1030600077EE277AC3ED007AD7F89030043393EDEA
:10307000007AD7ED167A37EE277AD7F888300433FE
:10308000D3ED007A3B681A1D3A6077EE277AC3EDDC
:10309000007AD7F8AC30043B93ED007AD7F8A4302F
:1030A000043BD3ED007A77EE277AC7ED167AD7F88E
:1030B000AC30043B93ED007AD7F8A430043BD3ED59
:1030C000007A77EE677AC7ED157AD7F8AC3093EDD2
:1030D000007AD7F8A430D3ED007A77EE277AC7EDDF
:1030E000187AD7F8AC3093ED007AD7F8A430D3ED46
:1030F000007A77EE677AC7ED177AD7F8A83093EDA4
:10310000007AD7F8A030D3ED007A37EE677AD7EDA2
:10311000157A77EE277AC7ED0D7AD7F8AC3093EDB4
:10312000007AD7F8A430D3ED007A37EE677AD7F873
:10313000A830043BD3ED007A37EE677AD7F8A03099
:10314000043BD3ED007A77EE277AC7ED0E7AD7F8F5
:10315000A830043BD3ED007A97ED167A37EE677A04
:10316000D7F8A030043BD3ED007A77EE677AC7ED4D
:10317000097AD7F8A830D3ED007A97ED187A37EEB0
:10318000677AD7F8A030D3ED007A77EE677AC7ED8B
:103190000A7AD7F8A83093ED007AD7F8A030D3EDAB
:1031A000007A37EE677AD7ED157A77EE677AC7ED52
:1031B000057AD7F8A030043B93ED007AD7F8A83011
:1031C000043BD3ED007A37EE677AD7ED177A77EEC6
:1031D000677AC7ED067AD7F8A83093ED007AD7ED75
:1031E000187A37EE277AD7F8A030D3ED007AD7F8DF
:1031F000AC301A1FC7F8AC2077EE277AC3ED007AFF
:10320000D7F8A830043B93ED007AD7ED167A37EE65
:10321000277AD7F8A030043BD3ED007AD7F8AC304A
:103220001A1FC7F8AC2077EE277AC3ED007AD7F8DB
:103230009C301A1DC7F89C201B683B65D7F89C3052
:103240001A1DC7F89C201B68FB64D7ED0B7A97ED1D
:10325000147A67EE277AC7ED127AD7ED0C7A97EDDC
:10326000137A67EE277AC7ED117AD7ED0C7A97EDCE
:10327000147A67EE277AC7ED107AD7ED0B7A97EDBF
:10328000137A67EE277AC7ED0F7AD7F890301A1DB8
:10329000C7F8902097ED127AD7ED117A77EE277A5A
:1032A000C3ED007AD7F890301A1DC7F8902097ED3B
:1032B000107AD7ED0F7A77EE677AC3ED007AD7ED03
:1032C0000E7A97ED137A67EE277AC7ED127AD7ED6B
:1032D0000D7A97ED147A67EE277AC7ED117AD7ED5C
:1032E0000D7A97ED137A67EE277AC7ED107AD7ED4E
:1032F0000E7A97ED147A67EE277AC7ED0F7AD7F832
:10330000A8301A1FC7F8A82097ED127AD7ED117AC6
:1033100077EE677AC3ED007AD7F8A8301A1FC7F89E
:10332000A82097ED107AD7ED0F7A77EE277AC3EDC4
:10333000007AD7F898301B683B65D7F8983004338B
:103340001B68FB64BB6E9B00D7F898201344C7F83A
:103350009830D7ED077A97ED147A67EE277AC7EDA4
:10336000127AD7ED087A97ED137A67EE277AC7EDD0
:10337000117AD7ED087A97ED147A67EE277AC7EDC0
:10338000107AD7ED077A97ED137A67EE277AC7EDB3
:103390000F7AD7F88C301A1DC7F88C2097ED127A67
:1033A000D7ED117A77EE277AC3ED007AD7F88C3013
:1033B0001A1DC7F88C2097ED107AD7ED0F7A77EEAB
:1033C000677AC3ED007AD7ED0A7AF1EE677A97ED66
:1033D000147A67EE277AC7ED127AD7ED097A97ED5E
:1033E000137A67EE277AC7ED117AD7ED097A97ED50
:1033F000147A67EE277AC7ED107AD7ED0A7A97ED3F
:10340000137A67EE277AC7ED0F7AD7F8A4301A1F20
:10341000C7F8A42097ED127AD7ED117A77EE677A84
:10342000C3ED007AD7F8A4301A1FC7F8A42097ED8F
:103430000F7AD7ED107A77EE677AC3ED007AD7F876
:1034400094301B683B65D7F8943004331B68FB64E9
:103450007B6E9B00D7F894201344C7F89430D7EDC7
:10346000037A97ED147A67EE277AC7ED127AD7EDD3
:10347000047A97ED137A67EE277AC7ED117AD7EDC4
:10348000047A97ED147A67EE277AC7ED107AD7EDB4
:10349000037A97ED137A67EE277AC7ED0F7AD7F89C
:1034A00088301A1DC7F8882097ED127AD7ED117A67
:1034B00077EE277AC3ED007AD7F888301A1DC7F85F
:1034C000882097ED107AD7ED0F7A77EE677AC3ED03
:1034D000007AD7ED067A97ED137A67EE277AC7ED73
:1034E000127AD7ED057A97ED147A67EE277AC7ED51
:1034F000117AD7ED057A97ED137A67EE277AC7ED43
:10350000107AD7ED067A97ED147A67EE277AC7ED31
:103510000F7AD7F8A0301A1FC7F8A02097ED127ABB
:10352000D7ED117A77EE677AC3ED007AD7F8A0303D
:103530001A1FC7F8A02097ED107AD7ED0F7A77EE13
:10354000277AC3ED007AD7F88430013BC7F884307E
:10355000D7F88430002B7FF4DEAC3B6893ED007A23
:10356000D7F88C30D3ED007A77EE277AC7ED187A4A
:103570003B6893ED007AD7F88C30D3ED007A77EE84
:10358000677AC7ED177A3B68043393ED007AD7F872
:103590008C300433D3ED007A77EE277AC7ED167AB4
:1035A0003B68043393ED007AD7F88C300433D3EDC5
:1035B000007A77EE677AC7ED157AD7F89030043342
:1035C00093ED007AD7ED177A37EE277AD7F888305F
:1035D0000433D3ED007A77EE677AC7ED0B7AD7F82C
:1035E0009030D3ED007A97ED157A37EE677AD7F8F9
:1035F0008830D3ED007A77EE277AC7ED0C7AD7F8CA
:103600009030D3ED007A97ED187A37EE677AD7F8D5
:103610008830D3ED007A77EE677AC7ED077AD7F86E
:1036200090300433D3ED007A97ED167A37EE677A4F
:10363000D7F888300433D3ED007A77EE677AC7ED98
:10364000087AD7F890300433D3ED007A97ED177AE3
:1036500037EE677AD7F888300433D3ED007A77EE07
:10366000277AC7ED037AD7F8903093ED007AD7ED3B
:10367000157A37EE277AD7F88830D3ED007A77EECF
:10368000677AC7ED047AD7F8903093ED007AD7EDDA
:10369000187A37EE277AD7F88830D3ED007A3B686E
:1036A0001A1D3A6077EE277AC3ED007AD7F890308A
:1036B000043393ED007AD7ED167A37EE277AD7F8F0
:1036C00088300433D3ED007A3B681A1D3A6077EEF8
:1036D000277AC3ED007AD7F89C301B683B65D7F892
:1036E0009C3004331B68FB64D7ED0B7A97ED147A9A
:1036F00067EE277AC7ED127AD7ED0C7A97ED137A39
:1037000067EE277AC7ED117AD7ED0C7A97ED147A28
:1037100067EE277AC7ED107AD7ED0B7A97ED137A1B
:1037200067EE277AC7ED0F7AD7F890301A1DC7F8E1
:10373000902097ED127AD7ED117A77EE277AC3EDC4
:10374000007AD7F890301A1DC7F8902097ED107ABC
:10375000D7ED0F7A77EE677AC3ED007AD7F8983015
:103760001B683B65D7F8983004331B68FB64D7EDC2
:10377000077A97ED147A67EE277AC7ED127AD7EDBC
:10378000087A97ED137A67EE277AC7ED117AD7EDAD
:10379000087A97ED147A67EE277AC7ED107AD7ED9D
:1037A000077A97ED137A67EE277AC7ED0F7AD7F885
:1037B0008C301A1DC7F88C2097ED127AD7ED117A4C
:1037C00077EE277AC3ED007AD7F88C301A1DC7F848
:1037D0008C2097ED107AD7ED0F7A77EE677AC3EDEC
:1037E000007AD7F894301B683B65D7F894300433DF
:1037F0001B68FB64D7ED037A97ED147A67EE277A9E
:10380000C7ED127AD7ED047A97ED137A67EE277A2F
:10381000C7ED117AD7ED047A97ED147A67EE277A1F
:10382000C7ED107AD7ED037A97ED137A67EE277A12
:10383000C7ED0F7AD7F888301A1DC7F8882097EDA2
:10384000127AD7ED117A77EE277AC3ED007AD7F89E
:1038500088301A1DC7F8882097ED107AD7ED0F7AB7
:1038600077EE677AC3ED007AD7F8803099B27B683B
:103870005A680423F86F00F0ABF9D7F8803099B29A
:103880007B685A680423B86F00F0A2F9D7F880303B
:1038900099B27B685A680423786F00F099F9D7F8D9
:1038A000803099B27B685A680423386F00F090F931
:1038B00000BFB037BD4680BD80B588B000AFF860AE
:1038C000B96011461A460B46FB711346BB71FB6883
:1038D0001B887B61FB79012B17D1BB680433BB616B
:1038E0000023FB610DE0BB69D3ED007AF1EE677A4E
:1038F000BB69C3ED007ABB690833BB61FB69013367
:10390000FB61FA697B699A42EDD37B69B3F5805F0D
:1039100040D07B69B3F5805F45D87B69B3F5006F14
:1039200033D07B69B3F5006F3DD87B69B3F5806F09
:1039300026D07B69B3F5806F35D87B69B3F5007FFE
:1039400028D07B69B3F5007F2DD87B69B3F5807FE4
:103950001BD07B69B3F5807F25D87B69802B0FD086
:103960007B69802B1FD87B69402B13D07B69402B50
:1039700019D87B69102B03D07B69202B05D012E06E
:10398000B968F868FEF774FF0DE0B968F868FFF7EA
:1039900063F908E07B6999B2FB685A680123B8684B
:1039A00000F016F900BFBB79002B07D0FB6899899E
:1039B000FB689B681A46B868FEF701FFFB79012B8C
:1039C00030D17B6907EE903AB8EE677AF7EE006A7D
:1039D000C6EE877AC7ED047ABB68BB610023FB6142
:1039E0001CE0BB691A1DBA6193ED007AD7ED047A29
:1039F00067EE277AC3ED007ABB69D3ED007AB1EEAA
:103A0000677AD7ED047A67EE277ABB69C3ED007A4F
:103A1000BB690433BB61FB690133FB61FA697B69F4
:103A20009A42DED300BF2037BD4680BD80B485B04A
:103A300000AF78600B467B800023FB737B687A883D
:103A40001A807B6800225A607B681B88B3F5805F10
:103A50002CD0B3F5805F00F39E80B3F5006F32D0B9
:103A6000B3F5006F00F39780B3F5806F38D0B3F5EE
:103A7000806F00F39080B3F5007F3ED0B3F5007FF8
:103A800000F38980B3F5807F44D0B3F5807F00F3E5
:103A90008280802B4BD0802B7DDC402B54D0402B60
:103AA00079DC102B6AD0202B5BD074E03F4B9A89D5
:103AB0007B689A813D4B9A687B689A603B4B5A6859
:103AC0007B685A606AE03A4B9A897B689A81384BE6
:103AD0009A687B689A60364B5A687B685A605DE0EA
:103AE000344B9A897B689A81324B9A687B689A60DA
:103AF000304B5A687B685A6050E02F4B9A897B683C
:103B00009A812D4B9A687B689A602B4B5A687B6828
:103B10005A6043E0294B9A897B689A81274B9A68BF
:103B20007B689A60254B5A687B685A6036E0244B64
:103B30009A897B689A81224B9A687B689A60204BAD
:103B40005A687B685A6029E01E4B9A897B689A8183
:103B50001C4B9A687B689A601A4B5A687B685A605B
:103B60001CE0194B9A897B689A81174B9A687B688D
:103B70009A60154B5A687B685A600FE0134B9A891C
:103B80007B689A81114B9A687B689A600F4B5A68E0
:103B90007B685A6002E0FF23FB7300BF97F90F3088
:103BA00018461437BD465DF8047B7047109502082F
:103BB00000950208F0940208E0940208D0940208EC
:103BC000C0940208B0940208A094020890940208DD
:103BD00080B4BDB000AFF8607A601A460B467B81B6
:103BE00013463B81094BC7F8DC307B89C7F8E430CA
:103BF000D7F8E430C7F8D830D7F8E430DB08C7F896
:103C0000E4300023C7F8E83002E000BFF304353F9A
:103C1000D7F8E820D7F8E4301344C7F8D430D7F801
:103C2000D420D7F8E4301344C7F8D030D7F8D020E8
:103C3000D7F8E4301344C7F8CC30D7F8CC20D7F805
:103C4000E4301344C7F8C830D7F8C820D7F8E430B8
:103C50001344C7F8C430D7F8C420D7F8E43013446D
:103C6000C7F8C030D7F8C020D7F8E4301344C7F8FD
:103C7000BC30D7F8E830DB00FA68134493ED007AE3
:103C8000D7F8C830DB00FA681344D3ED007A77EE3A
:103C9000277AC7ED2E7AD7F8E830DB00FA681344AC
:103CA00093ED007AD7F8C830DB00FA681344D3EDFF
:103CB000007A77EE677AC7ED2D7AD7F8D430DB003B
:103CC000FA68134493ED007AD7F8C430DB00FA6841
:103CD0001344D3ED007A77EE277AC7ED2C7AD7F824
:103CE000D430DB00FA68134493ED007AD7F8C4307F
:103CF000DB00FA681344D3ED007A77EE677AC7EDFC
:103D00002B7AD7F8D030DB00FA68134493ED007AB1
:103D1000D7F8C030DB00FA681344D3ED007A77EEB1
:103D2000277AC7ED2A7AD7F8D030DB00FA68134437
:103D300093ED007AD7F8C030DB00FA681344D3ED76
:103D4000007A77EE677AC7ED297AD7F8CC30DB00B6
:103D5000FA68134493ED007AD7F8BC30DB00FA68B8
:103D60001344D3ED007A77EE277AC7ED287AD7F897
:103D7000CC30DB00FA68134493ED007AD7F8BC30FE
:103D8000DB00FA681344D3ED007A77EE677AC7ED6B
:103D9000277A97ED2E7AD7ED2A7A77EE677AC7EDF4
:103DA000267A97ED2E7AD7ED2A7A77EE277AC7ED25
:103DB0002E7A97ED2C7AD7ED287A77EE677AC7EDD1
:103DC0002A7A97ED2C7AD7ED287A77EE277AC7ED05
:103DD0002C7AD7F8E830DB00FA68134497ED2E7A96
:103DE000D7ED2C7A77EE277AC3ED007AD7F8C83072
:103DF000DB00FA68134497ED2E7AD7ED2C7A77EE34
:103E0000677AC3ED007AD7F8E830DB000433FA684C
:103E1000134493ED007AD7F8C830DB000433FA6816
:103E20001344D3ED007A77EE277AC7ED2E7AD7F8D0
:103E3000E830DB000433FA68134493ED007AD7F8D6
:103E4000C830DB000433FA681344D3ED007A77EE10
:103E5000677AC7ED257AD7F8D430DB000433FA68E7
:103E6000134493ED007AD7F8C430DB000433FA68CA
:103E70001344D3ED007A77EE277AC7ED2C7AD7F882
:103E8000D430DB000433FA68134493ED007AD7F89A
:103E9000C430DB000433FA681344D3ED007A77EEC4
:103EA000677AC7ED247AD7F8D030DB000433FA689C
:103EB000134493ED007AD7F8C030DB000433FA687E
:103EC0001344D3ED007A77EE277AC7ED237AD7F83B
:103ED000D030DB000433FA68134493ED007AD7F84E
:103EE000C030DB000433FA681344D3ED007A77EE78
:103EF000677AC7ED227AD7F8CC30DB000433FA6852
:103F0000134493ED007AD7F8BC30DB000433FA6831
:103F10001344D3ED007A77EE277AC7ED287AD7F8E5
:103F2000CC30DB000433FA68134493ED007AD7F801
:103F3000BC30DB000433FA681344D3ED007A77EE2B
:103F4000677AC7ED217A97ED2E7AD7ED237A77EE4F
:103F5000677AC7ED207A97ED2E7AD7ED237A77EE40
:103F6000277AC7ED2E7A97ED2C7AD7ED287A77EE5F
:103F7000677AC7ED237A97ED2C7AD7ED287A77EE1A
:103F8000277AC7ED2C7AD7F8E830DB000433FA68DB
:103F9000134497ED2E7AD7ED2C7A77EE277AC3ED7E
:103FA000007AD7F8C830DB000433FA68134497ED81
:103FB0002E7AD7ED2C7A77EE677AC3ED007AD7F8B0
:103FC000D030DB00FA68134497ED267AD7ED237AD8
:103FD00077EE277AC3ED007AD7F8C030DB00FA68B5
:103FE000134497ED267AD7ED237A77EE677AC3EDFF
:103FF000007AD7F8D030DB000433FA68134497ED29
:10400000207AD7ED2A7A77EE677AC3ED007AD7F86F
:10401000C030DB000433FA68134497ED207AD7ED03
:104020002A7A77EE277AC3ED007A97ED2B7AD7EDCF
:10403000277A77EE677A97ED377A67EE277AC7EDBA
:104040002E7A97ED2B7AD7ED277A77EE277A97EDB0
:10405000377A67EE277AC7ED2B7A97ED247AD7ED7A
:10406000217A77EE677A97ED377A67EE277AC7ED90
:104070002C7A97ED247AD7ED217A77EE277A97ED8F
:10408000377A67EE277AC7ED247A97ED2D7AD7ED48
:104090002E7A77EE677AC7ED267A97ED2D7AD7EDEF
:1040A0002E7A77EE277AC7ED2D7A97ED297AD7ED1C
:1040B0002B7A77EE677AC7ED277A97ED297AD7EDD5
:1040C0002B7A77EE277AC7ED297A97ED257AD7ED07
:1040D0002C7A77EE677AC7ED207A97ED257AD7EDBF
:1040E0002C7A77EE277AC7ED257A97ED227AD7EDED
:1040F000247A77EE677AC7ED217A97ED227AD7EDA9
:10410000247A77EE277AC7ED227AD7F8D430DB000D
:10411000FA68134497ED2D7AD7ED227A77EE277A55
:10412000C3ED007AD7F8BC30DB00FA68134497ED92
:104130002D7AD7ED227A77EE677AC3ED007AD7F839
:10414000C430DB00FA68134497ED267AD7ED217A64
:1041500077EE277AC3ED007AD7F8CC30DB00FA6827
:10416000134497ED267AD7ED217A77EE677AC3ED7F
:10417000007AD7F8D430DB000433FA68134497EDA3
:10418000257AD7ED297A77EE677AC3ED007AD7F8EA
:10419000BC30DB000433FA68134497ED257AD7ED81
:1041A000297A77EE277AC3ED007AD7F8C430DB009E
:1041B0000433FA68134497ED207AD7ED277A77EE27
:1041C000677AC3ED007AD7F8CC30DB000433FA68A5
:1041D000134497ED207AD7ED277A77EE277AC3ED4F
:1041E000007AD7F8E820D7F8D8301344C7F8E83079
:1041F0007B89D7F8E8209A42FFF40AADD7F8E4307B
:10420000072B40F2E3840023C7F8EC300123C7F802
:10421000E0303B89D7F8EC201344FB67FB6FC7F80D
:10422000EC30D7F8EC20FB6F1344BB67BA6FFB6F21
:1042300013447B677A6FFB6F13443B673A6FFB6FE6
:104240001344FB66FA6EFB6F1344BB66BA6EFB6FDA
:1042500013447B66D7F8EC30DB007A6813441B68A4
:104260003B66BB6FDB007A6813441B68FB657B6FA2
:10427000DB007A6813441B68BB653B6FDB007A6820
:1042800013441B687B65FB6EDB007A6813441B6874
:104290003B65BB6EDB007A6813441B68FB647B6E76
:1042A000DB007A6813441B68BB64D7F8EC30DB0092
:1042B00004337A6813441B687B64BB6FDB000433F0
:1042C0007A6813441B683B647B6FDB0004337A68B5
:1042D00013441B68FB633B6FDB0004337A681344B1
:1042E0001B68BB63FB6EDB0004337A6813441B68F6
:1042F0007B63BB6EDB0004337A6813441B683B634B
:104300007B6EDB0004337A6813441B68FB62D7F8CA
:10431000E030C7F8E830D7F8E820D7F8E4301344A5
:10432000C7F8D430D7F8D420D7F8E4301344C7F80E
:10433000D030D7F8D020D7F8E4301344C7F8CC30C9
:10434000D7F8CC20D7F8E4301344C7F8C830D7F8F2
:10435000C820D7F8E4301344C7F8C430D7F8C420D5
:10436000D7F8E4301344C7F8C030D7F8C020D7F8E6
:10437000E4301344C7F8BC30D7F8E830DB00FA6803
:10438000134493ED007AD7F8C830DB00FA68134481
:10439000D3ED007A77EE277AC7ED2E7AD7F8E8309A
:1043A000DB00FA68134493ED007AD7F8C830DB00DD
:1043B000FA681344D3ED007A77EE677AC7ED2D7A69
:1043C000D7F8D430DB00FA68134493ED007AD7F8BD
:1043D000C430DB00FA681344D3ED007A77EE277A15
:1043E000C7ED2C7AD7F8D430DB00FA68134493ED8C
:1043F000007AD7F8C430DB00FA681344D3ED007AB2
:1044000077EE677AC7ED2B7AD7F8D030DB00FA6801
:10441000134493ED007AD7F8C030DB00FA681344F8
:10442000D3ED007A77EE277AC7ED2A7AD7F8D03025
:10443000DB00FA68134493ED007AD7F8C030DB0054
:10444000FA681344D3ED007A77EE677AC7ED297ADC
:10445000D7F8CC30DB00FA68134493ED007AD7F834
:10446000BC30DB00FA681344D3ED007A77EE277A8C
:10447000C7ED287AD7F8CC30DB00FA68134493ED07
:10448000007AD7F8BC30DB00FA681344D3ED007A29
:1044900077EE677AC7ED277A97ED2E7AD7ED2A7AED
:1044A00077EE677AC7ED267A97ED2E7AD7ED2A7ADE
:1044B00077EE277AC7ED2E7A97ED2C7AD7ED287A0A
:1044C00077EE677AC7ED2A7A97ED2C7AD7ED287ABE
:1044D00077EE277AC7ED2C7AD7F8E830DB00FA6858
:1044E000134497ED2E7AD7ED2C7A77EE277AC3ED29
:1044F000007A97ED2E7AD7ED2C7A77EE677AC7EDB2
:104500002C7AD7F8E830DB000433FA68134493EDD3
:10451000007AD7F8C830DB000433FA681344D3EDCF
:10452000007A77EE277AC7ED0A7AD7F8E830DB0011
:104530000433FA68134493ED007AD7F8C830DB00EF
:104540000433FA681344D3ED007A77EE677AC7ED47
:10455000257AD7F8D430DB000433FA68134493ED9E
:10456000007AD7F8C430DB000433FA681344D3ED83
:10457000007A77EE277AC7ED097AD7F8D430DB00D6
:104580000433FA68134493ED007AD7F8C430DB00A3
:104590000433FA681344D3ED007A77EE677AC7EDF7
:1045A000247AD7F8D030DB000433FA68134493ED53
:1045B000007AD7F8C030DB000433FA681344D3ED37
:1045C000007A77EE277AC7ED237AD7F8D030DB0070
:1045D0000433FA68134493ED007AD7F8C030DB0057
:1045E0000433FA681344D3ED007A77EE677AC7EDA7
:1045F000227AD7F8CC30DB000433FA68134493ED09
:10460000007AD7F8BC30DB000433FA681344D3EDEA
:10461000007A77EE277AC7ED087AD7F8CC30DB003E
:104620000433FA68134493ED007AD7F8BC30DB000A
:104630000433FA681344D3ED007A77EE677AC7ED56
:10464000217A97ED0A7AD7ED237A77EE677AC7ED6C
:10465000207A97ED0A7AD7ED237A77EE277AC7ED9D
:104660000A7A97ED097AD7ED087A77EE677AC7ED7F
:10467000237A97ED097AD7ED087A77EE277AC7ED96
:10468000097A97ED267AD7ED237A77EE277AC7ED68
:104690002E7A97ED267AD7ED237A77EE677AC7EDF3
:1046A000267AD7F8E830DB000433FA68134497ED34
:1046B0000A7AD7ED097A77EE277AC3ED007A97ED7B
:1046C0000A7AD7ED097A77EE677AC7ED097A97ED1E
:1046D000207AD7ED2A7A77EE677AC7ED0A7A97EDD6
:1046E000207AD7ED2A7A77EE277AC7ED207A97EDF0
:1046F000157AD7ED2C7A67EE277AC7ED077A97ED12
:104700000E7AD7ED097A67EE277AC7ED067A97ED2C
:10471000157AD7ED097A67EE277AC7ED057A97ED16
:104720000E7AD7ED2C7A67EE277AC7ED047AD7F8A0
:10473000C830DB00FA68134497ED077AD7ED067AA4
:1047400077EE277AC3ED007AD7F8C830DB00043360
:10475000FA68134497ED057AD7ED047A77EE677A15
:10476000C3ED007A97ED177AD7ED2E7A67EE277AA8
:10477000C7ED077A97ED107AD7ED0A7A67EE277AB8
:10478000C7ED067A97ED177AD7ED0A7A67EE277AA2
:10479000C7ED057A97ED107AD7ED2E7A67EE277A76
:1047A000C7ED047AD7F8D030DB00FA68134497EDF0
:1047B000077AD7ED067A77EE277AC3ED007AD7F835
:1047C000D030DB000433FA68134497ED057AD7ED57
:1047D000047A77EE677AC3ED007A97ED137AD7ED16
:1047E000267A67EE277AC7ED077A97ED0C7AD7ED30
:1047F000207A67EE277AC7ED067A97ED137AD7ED20
:10480000207A67EE277AC7ED057A97ED0C7AD7ED17
:10481000267A67EE277AC7ED047AD7F8C030DB0036
:10482000FA68134497ED077AD7ED067A77EE277A80
:10483000C3ED007AD7F8C030DB000433FA681344C4
:1048400097ED057AD7ED047A77EE677AC3ED007AB3
:1048500097ED2B7AD7ED277A77EE677A97ED377A4F
:1048600067EE277AC7ED2E7A97ED2B7AD7ED277A68
:1048700077EE277A97ED377A67EE277AC7ED2B7AAE
:1048800097ED247AD7ED217A77EE677A97ED377A2C
:1048900067EE277AC7ED0A7A97ED247AD7ED217A69
:1048A00077EE277A97ED377A67EE277AC7ED247A85
:1048B00097ED2D7AD7ED2E7A77EE677AC7ED267AC7
:1048C00097ED2D7AD7ED2E7A77EE277AC7ED2D7AF0
:1048D00097ED297AD7ED2B7A77EE677AC7ED277AAD
:1048E00097ED297AD7ED2B7A77EE277AC7ED297ADB
:1048F00097ED257AD7ED0A7A77EE677AC7ED207AB9
:1049000097ED257AD7ED0A7A77EE277AC7ED257AE3
:1049100097ED227AD7ED247A77EE677AC7ED217A80
:1049200097ED227AD7ED247A77EE277AC7ED227AAF
:1049300097ED2D7AD7ED227A77EE277AC7ED2E7A8A
:1049400097ED2D7AD7ED227A77EE677AC7ED2D7A3B
:1049500097ED267AD7ED217A77EE277AC7ED2B7A75
:1049600097ED267AD7ED217A77EE677AC7ED267A2A
:1049700097ED257AD7ED297A77EE677AC7ED0A7A2F
:1049800097ED257AD7ED297A77EE277AC7ED257A44
:1049900097ED207AD7ED277A77EE677AC7ED247AFC
:1049A00097ED207AD7ED277A77EE277AC7ED207A30
:1049B00097ED187AD7ED2E7A67EE277AC7ED077A4A
:1049C00097ED117AD7ED0A7A67EE277AC7ED067A66
:1049D00097ED187AD7ED0A7A67EE277AC7ED057A50
:1049E00097ED117AD7ED2E7A67EE277AC7ED047A24
:1049F000D7F8D430DB00FA68134497ED077AD7ED87
:104A0000067A77EE277AC3ED007AD7F8D430DB0048
:104A10000433FA68134497ED057AD7ED047A77EEFC
:104A2000677AC3ED007A97ED127AD7ED2D7A67EEAB
:104A3000277AC7ED077A97ED0B7AD7ED257A67EEDF
:104A4000277AC7ED067A97ED127AD7ED257A67EEC9
:104A5000277AC7ED057A97ED0B7AD7ED2D7A67EEB9
:104A6000277AC7ED047AD7F8BC30DB00FA68134424
:104A700097ED077AD7ED067A77EE277AC3ED007ABD
:104A8000D7F8BC30DB000433FA68134497ED057A9D
:104A9000D7ED047A77EE677AC3ED007A97ED147A52
:104AA000D7ED2B7A67EE277AC7ED077A97ED0D7A67
:104AB000D7ED247A67EE277AC7ED067A97ED147A58
:104AC000D7ED247A67EE277AC7ED057A97ED0D7A50
:104AD000D7ED2B7A67EE277AC7ED047AD7F8C43082
:104AE000DB00FA68134497ED077AD7ED067A77EE84
:104AF000277AC3ED007AD7F8C430DB000433FA68B4
:104B0000134497ED057AD7ED047A77EE677AC3ED13
:104B1000007A97ED167AD7ED267A67EE277AC7EDF9
:104B2000077A97ED0F7AD7ED207A67EE277AC7EDEF
:104B3000067A97ED167AD7ED207A67EE277AC7EDD9
:104B4000057A97ED0F7AD7ED267A67EE277AC7EDCB
:104B5000047AD7F8CC30DB00FA68134497ED077A73
:104B6000D7ED067A77EE277AC3ED007AD7F8CC3006
:104B7000DB000433FA68134497ED057AD7ED047A25
:104B800077EE677AC3ED007AD7F8E820D7F8D83007
:104B90001344C7F8E8307B89D7F8E8209A42FFF43D
:104BA000BAABD7F8E0300133C7F8E030D7F8E020EF
:104BB000D7F8E4309A42FFF42CAB3B89DB003B8111
:104BC000D7F8E430072B3FF613A800E000BF00BF82
:104BD000F437BD465DF8047B704700BF80B495B0E4
:104BE00000AFF860B9607A60FB685B69BB64BB6862
:104BF0007B64BB683B64FB681B88013BFB643B6CCC
:104C00001B68FB633B6C5B68BB637B6C1B687B63F3
:104C10007B6C5B683B63BB6C1A1DBA641B68FB62F0
:104C2000BB6C1A1DBA641B68BB6297ED0F7AD7ED97
:104C30000D7A77EE277AC7ED097A97ED0E7AD7EDE0
:104C40000C7A77EE277AC7ED087A97ED097AD7EDD7
:104C5000087A77EE277A7B681A1D7A60B6EE007ABA
:104C600067EE877AC3ED007A97ED097AD7ED087A77
:104C700077EE677A7B681A1D7A60B6EE007A67EE87
:104C8000877AC3ED007AFB6CDB00BA6813443B649F
:104C90007B6C08337B643B6C5B68BB633B6C1B6861
:104CA000FB637B6C1B687B637B6C5B683B63BB6CEF
:104CB0001A1DBA641B68FB62BB6C1A1DBA641B68C0
:104CC000BB6297ED0F7AD7ED0D7A77EE677AC7ED75
:104CD000097A97ED0E7AD7ED0C7A77EE277AC7ED41
:104CE000087A97ED0B7AD7ED097A67EE277AC7ED48
:104CF000077A97ED0A7AD7ED097A67EE277AC7ED3A
:104D0000067A97ED0B7AD7ED087A67EE277AC7ED2A
:104D1000057A97ED0A7AD7ED087A67EE277AC7ED1C
:104D2000047A97ED0D7AD7ED0F7A37EE277AD7ED23
:104D3000077A37EE277AD7ED047A77EE277A7B6801
:104D40001A1D7A60B6EE007A67EE877AC3ED007AB4
:104D500097ED0C7AD7ED0E7A37EE677AD7ED067AB3
:104D600037EE277AD7ED057A77EE677A7B681A1DDA
:104D70007A60B6EE007A67EE877AC3ED007A7B6CD4
:104D800008337B643B6C083B3B64FB6C013BFB647E
:104D9000FB6C002B3FF77FAF00BF00BF5437BD4611
:104DA0005DF8047B704780B495B000AFF860B960DF
:104DB0007A60FB685B69BB64BB687B64BB683B640F
:104DC000FB681B88013BFB647B6C1B68FB637B6C93
:104DD0005B68BB63BB6C0833BB6497ED0F7AD7EDA0
:104DE0000E7A77EE277A7B681A1D7A60B6EE007A23
:104DF00067EE877AC3ED007A97ED0F7AD7ED0E7ADA
:104E000077EE677A7B681A1D7A60B6EE007A67EEF5
:104E1000877AC3ED007AFB6CDB00BA6813443B640D
:104E20007B6C08337B647CE03B6C5B687B633B6C36
:104E30001B683B637B6C1B68FB637B6C5B68BB63C1
:104E4000BB6C1A1DBA641B68FB62BB6C1A1DBA648A
:104E50001B68BB6297ED0F7AD7ED0C7A77EE677A15
:104E6000C7ED097A97ED0E7AD7ED0D7A77EE277AAE
:104E7000C7ED087A97ED0B7AD7ED097A67EE277AB6
:104E8000C7ED077A97ED0A7AD7ED087A67EE277AA9
:104E9000C7ED067A97ED0A7AD7ED097A67EE277A99
:104EA000C7ED057A97ED0B7AD7ED087A67EE277A8A
:104EB000C7ED047A97ED0F7AD7ED0C7A37EE277AA3
:104EC000D7ED077A37EE677AD7ED067A77EE677A0D
:104ED0007B681A1D7A60B6EE007A67EE877AC3EDBA
:104EE000007A97ED0E7AD7ED0D7A37EE677AD7ED27
:104EF000057A37EE277AD7ED047A77EE677A7B6802
:104F00001A1D7A60B6EE007A67EE877AC3ED007AF2
:104F10007B6C08337B643B6C083B3B64FB6C013B64
:104F2000FB64FB6C002B3FF77FAF00BF00BF543723
:104F3000BD465DF8047B704780B586B000AFF86071
:104F4000B9607A60FB70FB687B61FB78002B0BD04B
:104F50007A68B968F868FFF726FFFA78012379685C
:104F60007869FEF7A9FC0AE0FA780123B968786944
:104F7000FEF7A2FC7A68B968F868FFF72FFE00BF59
:104F80001837BD4680BD000080B584B000AF7860A2
:104F90007B68002B02D14FF0FF3314E07B681021B7
:104FA0001846FEF743FD0346FB7397F90F30002BBD
:104FB00002D097F90F3006E07B6820221A827B68C6
:104FC000034A5A61002318461037BD4680BD00BF12
:104FD0001015020880B584B000AF78607B68002BA4
:104FE00002D14FF0FF3314E07B6820211846FEF712
:104FF0001DFD0346FB7397F90F30002B02D097F984
:105000000F3006E07B6840221A827B68034A5A61AF
:10501000002318461037BD4680BD00BF901502081A
:1050200080B584B000AF78607B68002B02D14FF070
:10503000FF3314E07B6840211846FEF7F7FC034677
:10504000FB7397F90F30002B02D097F90F3006E071
:105050007B6880221A827B68034A5A6100231846C3
:105060001037BD4680BD00BF9016020880B584B0E1
:1050700000AF78607B68002B02D14FF0FF3315E062
:105080007B6880211846FEF7D1FC0346FB7397F935
:105090000F30002B02D097F90F3007E07B684FF4F8
:1050A00080721A827B68034A5A61002318461037BF
:1050B000BD4680BD9018020880B584B000AF78600E
:1050C0007B68002B02D14FF0FF3316E07B684FF472
:1050D00080711846FEF7AAFC0346FB7397F90F3060
:1050E000002B02D097F90F3007E07B684FF4007275
:1050F0001A827B68034A5A61002318461037BD465E
:1051000080BD00BF901C020880B584B000AF7860FD
:105110007B68002B02D14FF0FF3316E07B684FF421
:1051200000711846FEF782FC0346FB7397F90F30B7
:10513000002B02D097F90F3007E07B684FF48062B4
:105140001A827B68034A5A61002318461037BD460D
:1051500080BD00BF9024020880B584B000AF7860A5
:105160007B68002B02D14FF0FF3316E07B684FF4D1
:1051700080611846FEF75AFC0346FB7397F90F301F
:10518000002B02D097F90F3007E07B684FF40062E4
:105190001A827B68034A5A61002318461037BD46BD
:1051A00080BD00BF9034020880B584B000AF786045
:1051B0007B68002B02D14FF0FF3316E07B684FF481
:1051C00000611846FEF732FC0346FB7397F90F3077
:1051D000002B02D097F90F3007E07B684FF4805224
:1051E0001A827B68034A5A61002318461037BD466D
:1051F00080BD00BF9054020880B584B000AF7860D5
:105200000B467B800023FB607B88B3F5805F23D057
:10521000B3F5805F38DCB3F5006F20D0B3F5006FD5
:1052200032DCB3F5806F1DD0B3F5806F2CDCB3F5A5
:10523000007F1AD0B3F5007F26DCB3F5807F17D04E
:10524000B3F5807F20DC802B15D0802B1CDC202B3D
:1052500017D0402B12D017E0134BFB6015E0134B17
:10526000FB6012E0124BFB600FE0124BFB600CE0A6
:10527000114BFB6009E0114BFB6006E0104BFB603B
:1052800003E0104BFB6000E000BFFB68002B02D185
:105290004FF0FF3303E0FB687868984703461846F1
:1052A0001037BD4680BD00BFA95100085951000804
:1052B00009510008B95000086D500008215000083D
:1052C000D54F0008894F000880B500AF00220121AA
:1052D000024802F031F800BF80BD00BF0004024068
:1052E00080B500AF01220121024802F025F800BF7D
:1052F00080BD00BF0004024080B582B000AF78607E
:105300000B467B807A884FF0FF337968034803F0BF
:1053100062FD00BF0837BD4680BD00BF8815002074
:1053200080B582B000AF78600B467B807A884FF002
:10533000FF337968034803F092FE00BF0837BD468B
:1053400080BD00BF8815002080B582B000AF062365
:10535000FB71FFF7B9FFFB1D01211846FFF7CCFFDA
:10536000FFF7BEFF00BF0837BD4680BD80B582B0E5
:1053700000AF0523FB71FFF7A7FFFB1D01211846B6
:10538000FFF7BAFFBB1D01211846FFF7C9FFFFF762
:10539000A7FFBB7903F00103DBB218460837BD460F
:1053A00080BD80B500AF00BFFFF7E0FF0346002BD4
:1053B000FAD100BF00BF80BD80B586B000AFF860F5
:1053C000B9601346FB8003233B75FB681B0CDBB203
:1053D0007B75FB681B0ADBB2BB75FB68DBB2FB7538
:1053E000FFF772FF07F1140304211846FFF784FF4B
:1053F000FB881946B868FFF793FFFFF771FF00BFFE
:105400001837BD4680BD80B584B000AF7860FFF727
:105410009BFF20233B737B681B0CDBB27B737B6899
:105420001B0ADBB2BB737B68DBB2FB73FFF74CFF7D
:1054300007F10C0304211846FFF75EFFFFF750FF4A
:10544000FFF7AFFF00BF1037BD4680BD80B586B007
:1054500000AFF860B9601346FB8039E0FB689BB28F
:10546000DBB2BB82BB8AC3F58073FB82FA8AFB88FE
:105470009A4201D9FB88FB82FFF766FF02233B7447
:10548000FB681B0CDBB27B74FB681B0ADBB2BB74D2
:10549000FB68DBB2FB74FFF717FF07F11003042171
:1054A0001846FFF729FFFB8A1946B868FFF724FF63
:1054B000FFF716FFFFF775FFFB8AFA681344FB60DE
:1054C000FB8ABA681344BB60FA88FB8AD31AFB8054
:1054D000FB88002BC2D100BF00BF1837BD4680BD7E
:1054E00080B483B000AF0346FB804FF0C042FB881E
:1054F000138000BF0C37BD465DF8047B7047000089
:1055000080B483B000AF0346FB80044AFB8813805D
:1055100000BF0C37BD465DF8047B70470000086093
:1055200080B483B000AF03463960FB8002E0074AD5
:10553000FB8813803B685A1E3A60002BF7D100BFEE
:1055400000BF0C37BD465DF8047B70470000086063
:1055500090B583B000AF0446084611461A4623466C
:10556000FB800346BB800B467B8013463B802A2092
:10557000FFF7B6FFFB881B0A9BB21846FFF7C0FF78
:10558000FB88DBB29BB21846FFF7BAFF7B881B0A89
:105590009BB21846FFF7B4FF7B88DBB29BB218467C
:1055A000FFF7AEFF2B20FFF79BFFBB881B0A9BB2C8
:1055B0001846FFF7A5FFBB88DBB29BB21846FFF782
:1055C0009FFF3B881B0A9BB21846FFF799FF3B8859
:1055D000DBB29BB21846FFF793FF2C20FFF780FF4A
:1055E00000BF0C37BD4690BD80B582B000AF03460A
:1055F0000A46FB801346BB80BB88FA88B988F888C6
:10560000FFF7A6FF00BF0837BD4680BD80B582B05A
:1056100000AF0346FB800B46BB8013467B80BA88F5
:10562000FB8811461846FFF7DFFF7B881846FFF717
:1056300067FF00BF0837BD4680BD80B582B000AFB0
:105640000346FB80EF2340F23F1200210020FFF7CA
:105650007FFFFB884FF496311846FFF761FF00BFCC
:105660000837BD4680BD90B583B000AF04460846FC
:1056700011461A462346FB800346BB800B467B80BF
:1056800013463B80FA887B8813449BB2013B9AB255
:10569000BB88B988F888FFF75BFF7A883B8811469A
:1056A0001846FFF73DFF00BF0C37BD4690BD90B5D3
:1056B00083B000AF0446084611461A462346FB80D5
:1056C0000346BB800B467B8013463B80BA887B88B1
:1056D00013449BB2013B9BB2FA88B988F888FFF764
:1056E00037FF7A883B8811461846FFF719FF00BF3D
:1056F0000C37BD4690BD90B583B000AF0446084658
:1057000011461A462346FB800346BB800B467B802E
:1057100013463B80FA887B8813449BB2013B9CB2C2
:10572000BA883B8813449BB2013B9BB2B988F88886
:105730002246FFF70DFF7B883A8802FB03F31A46E7
:105740003B8B11461846FFF7EBFE00BF0C37BD46FA
:1057500090BD90B583B000AF0446084611461A4686
:105760002346FB800346BB800B467B8013463B8071
:105770003B8B7A88B988F888FFF775FFBA883B8831
:10578000134499B23B8B7A88F888FFF76CFF3B8B08
:105790003A88B988F888FFF78AFFFA887B8813442B
:1057A00098B23B8B3A88B988FFF781FF00BF0C376E
:1057B000BD4690BD80B500AF142001F041FA012034
:1057C000FFF78EFE0A2001F03BFA3A20FFF788FE31
:1057D0005520FFF795FE3620FFF782FE2820FFF7C1
:1057E0008FFE1120FFF77CFE782001F029FA292096
:1057F000FFF776FE0020FFF720FF00BF80BD80B5D9
:1058000084B000AF0123FB6015E0FB684FF4967293
:1058100002FB03F3002B00DA0733DB100A333B6093
:105820003B6898B247F6EF33A0222821FFF73FFFED
:10583000FB680133FB60FB68072BE6DD0123BB60DF
:1058400012E0BB685A1C13469B001344DB007B60CC
:105850007B6899B247F6EF334FF496720A20FFF750
:1058600002FFBB680133BB60BB68032BE9DD00BFEF
:1058700000BF1037BD4680BD80B58AB002AF7860EA
:105880003960002300939E234FF4957229210B2049
:10589000FFF731FFFFF7B3FF244B5B687B61002309
:1058A000FB613AE0FB694FF4967203FB02F23B683E
:1058B00092FBF3F30A333B61FB699B007A68134464
:1058C0001B68BB6197ED067AD7ED057AB4EEE77AEF
:1058D000F1EE10FA01DD7B69BB61D7ED066A97ED49
:1058E000057AC6EE877A9FED127A67EE877AFDEE2B
:1058F000E77A17EE903AFB60FB68C3F1C803BB6020
:105900003B6998B2BB6899B2FB689AB24FF4FC63EA
:10591000FFF7CDFEFB690133FB61FA693B689A42F0
:10592000C0DB00BF00BF2037BD4680BD241500206E
:105930000000204380B592B002AFF860B9607A6091
:105940007B807B689BB2013399B200230093442390
:105950004FF495720B20FFF7CEFE0123FB6316E098
:10596000FB6B4FF4967202FB03F3002B00DA073354
:10597000DB100A337B617B6998B27B6899B247F68A
:10598000EF334622FFF793FEFB6B0133FB63FB6BA8
:10599000072BE5DD0123BB6317E0BB6B462202FB4F
:1059A00003F3002B00DA03339B101A467B68134481
:1059B000BB61BB6999B247F6EF334FF496720A2088
:1059C000FFF751FEBB6B0133BB63BB6B032BE4DD05
:1059D0004C4B5B68FB6200237B633BE07B6B4FF4CB
:1059E000967203FB02F2BB6892FBF3F30A337B620D
:1059F0007B6B9B00FA6813441B683B6397ED0C7A42
:105A0000D7ED0B7AB4EEE77AF1EE10FA01DDFB6A1E
:105A10003B63D7ED0C6A97ED0B7AC6EE877A9FED64
:105A20003A7A67EE877AFDEEE77A17EE903A3B62B4
:105A30007B6803F146023B6AD31AFB617B6A98B22A
:105A4000FB6999B23B6A9AB27B88FFF730FE7B6BA9
:105A500001337B637A6BBB689A42BFDB7B6899B288
:105A60004FF6FF73009346234FF496720A20FFF718
:105A700070FE7B684833BB62BB6A99B2234B4FF61A
:105A8000FF7201925A6800921B68214A082000F0B8
:105A9000A0FABB6A99B21D4B4FF6FF7201925A6889
:105AA00000921B681B4A4D2000F093FABB6A99B222
:105AB000164B4FF6FF7201925A6800921B68164A05
:105AC000942000F086FABB6A99B2104B4FF6FF7231
:105AD00001925A6800921B68104ADF2000F079FAA0
